{
  "contractName": "LockSave",
  "abi": [
    {
      "inputs": [
        {
          "internalType": "uint256",
          "name": "_withdrawTimestamp",
          "type": "uint256"
        }
      ],
      "name": "receiveSavings",
      "outputs": [],
      "stateMutability": "payable",
      "type": "function",
      "payable": true
    },
    {
      "inputs": [
        {
          "internalType": "address",
          "name": "_owner",
          "type": "address"
        }
      ],
      "name": "getUserTotalSavingAmount",
      "outputs": [
        {
          "internalType": "uint256",
          "name": "",
          "type": "uint256"
        }
      ],
      "stateMutability": "view",
      "type": "function",
      "constant": true
    },
    {
      "inputs": [
        {
          "internalType": "uint256",
          "name": "_savingTimestamp",
          "type": "uint256"
        }
      ],
      "name": "getWithdrwalTimestamp",
      "outputs": [
        {
          "internalType": "uint256",
          "name": "",
          "type": "uint256"
        }
      ],
      "stateMutability": "view",
      "type": "function",
      "constant": true
    },
    {
      "inputs": [
        {
          "internalType": "uint256",
          "name": "_savingTimestamp",
          "type": "uint256"
        }
      ],
      "name": "getSavingAmountByTimestamp",
      "outputs": [
        {
          "internalType": "uint256",
          "name": "",
          "type": "uint256"
        }
      ],
      "stateMutability": "view",
      "type": "function",
      "constant": true
    },
    {
      "inputs": [
        {
          "internalType": "uint256",
          "name": "_savingTimestamp",
          "type": "uint256"
        }
      ],
      "name": "withdrawSavings",
      "outputs": [],
      "stateMutability": "payable",
      "type": "function",
      "payable": true
    }
  ],
  "bytecode": "0x608060405234801561001057600080fd5b5061104d806100206000396000f3fe60806040526004361061004a5760003560e01c80636e801f971461004f578063901a30951461008c578063c7ff035c146100c9578063de98645014610106578063f5c6ecd714610122575b600080fd5b34801561005b57600080fd5b5061007660048036038101906100719190610bb6565b61013e565b6040516100839190610bf2565b60405180910390f35b34801561009857600080fd5b506100b360048036038101906100ae9190610bb6565b610366565b6040516100c09190610bf2565b60405180910390f35b3480156100d557600080fd5b506100f060048036038101906100eb9190610c6b565b61058e565b6040516100fd9190610bf2565b60405180910390f35b610120600480360381019061011b9190610bb6565b61066d565b005b61013c60048036038101906101379190610bb6565b6107c8565b005b6000806000803373ffffffffffffffffffffffffffffffffffffffff1673ffffffffffffffffffffffffffffffffffffffff1681526020019081526020016000208054905014156101c4576040517f08c379a00000000000000000000000000000000000000000000000000000000081526004016101bb90610cf5565b60405180910390fd5b600033905060005b6000808373ffffffffffffffffffffffffffffffffffffffff1673ffffffffffffffffffffffffffffffffffffffff168152602001908152602001600020805490508110156103255760008060008473ffffffffffffffffffffffffffffffffffffffff1673ffffffffffffffffffffffffffffffffffffffff168152602001908152602001600020828154811061026757610266610d15565b5b90600052602060002090600402016040518060800160405290816000820160009054906101000a900473ffffffffffffffffffffffffffffffffffffffff1673ffffffffffffffffffffffffffffffffffffffff1673ffffffffffffffffffffffffffffffffffffffff1681526020016001820154815260200160028201548152602001600382015481525050905084816040015114156103115780602001519350505050610361565b50808061031d90610d73565b9150506101cc565b506040517f08c379a000000000000000000000000000000000000000000000000000000000815260040161035890610e08565b60405180910390fd5b919050565b6000806000803373ffffffffffffffffffffffffffffffffffffffff1673ffffffffffffffffffffffffffffffffffffffff1681526020019081526020016000208054905014156103ec576040517f08c379a00000000000000000000000000000000000000000000000000000000081526004016103e390610cf5565b60405180910390fd5b600033905060005b6000808373ffffffffffffffffffffffffffffffffffffffff1673ffffffffffffffffffffffffffffffffffffffff1681526020019081526020016000208054905081101561054d5760008060008473ffffffffffffffffffffffffffffffffffffffff1673ffffffffffffffffffffffffffffffffffffffff168152602001908152602001600020828154811061048f5761048e610d15565b5b90600052602060002090600402016040518060800160405290816000820160009054906101000a900473ffffffffffffffffffffffffffffffffffffffff1673ffffffffffffffffffffffffffffffffffffffff1673ffffffffffffffffffffffffffffffffffffffff1681526020016001820154815260200160028201548152602001600382015481525050905084816040015114156105395780606001519350505050610589565b50808061054590610d73565b9150506103f4565b506040517f08c379a000000000000000000000000000000000000000000000000000000000815260040161058090610e08565b60405180910390fd5b919050565b6000806000905060005b6000808573ffffffffffffffffffffffffffffffffffffffff1673ffffffffffffffffffffffffffffffffffffffff16815260200190815260200160002080549050811015610663576000808573ffffffffffffffffffffffffffffffffffffffff1673ffffffffffffffffffffffffffffffffffffffff168152602001908152602001600020818154811061063157610630610d15565b5b9060005260206000209060040201600101548261064e9190610e28565b9150808061065b90610d73565b915050610598565b5080915050919050565b60008060003373ffffffffffffffffffffffffffffffffffffffff1673ffffffffffffffffffffffffffffffffffffffff1681526020019081526020016000208054905014156106f2576040517f08c379a00000000000000000000000000000000000000000000000000000000081526004016106e990610cf5565b60405180910390fd5b8042811115610736576040517f08c379a000000000000000000000000000000000000000000000000000000000815260040161072d90610ef0565b60405180910390fd5b600033905060006107468461013e565b905060008273ffffffffffffffffffffffffffffffffffffffff166108fc839081150290604051600060405180830381858888f193505050509050806107c1576040517f08c379a00000000000000000000000000000000000000000000000000000000081526004016107b890610f5c565b60405180910390fd5b5050505050565b6000339050600034905060008060008473ffffffffffffffffffffffffffffffffffffffff1673ffffffffffffffffffffffffffffffffffffffff16815260200190815260200160002080549050141561082c5761082782828561083d565b610838565b6108378282856109d8565b5b505050565b816000811115610882576040517f08c379a000000000000000000000000000000000000000000000000000000000815260040161087990610fc8565b60405180910390fd5b60008060008673ffffffffffffffffffffffffffffffffffffffff1673ffffffffffffffffffffffffffffffffffffffff16815260200190815260200160002080549050146108d4576108d3610fe8565b5b60405180608001604052808573ffffffffffffffffffffffffffffffffffffffff168152602001848152602001428152602001838152506000808673ffffffffffffffffffffffffffffffffffffffff1673ffffffffffffffffffffffffffffffffffffffff16815260200190815260200160002060008154811061095c5761095b610d15565b5b906000526020600020906004020160008201518160000160006101000a81548173ffffffffffffffffffffffffffffffffffffffff021916908373ffffffffffffffffffffffffffffffffffffffff16021790555060208201518160010155604082015181600201556060820151816003015590505050505050565b816000811115610a1d576040517f08c379a0000000000000000000000000000000000000000000000000000000008152600401610a1490610fc8565b60405180910390fd5b60008060008673ffffffffffffffffffffffffffffffffffffffff1673ffffffffffffffffffffffffffffffffffffffff168152602001908152602001600020805490501415610a7057610a6f610fe8565b5b6000808573ffffffffffffffffffffffffffffffffffffffff1673ffffffffffffffffffffffffffffffffffffffff16815260200190815260200160002060405180608001604052808673ffffffffffffffffffffffffffffffffffffffff16815260200185815260200142815260200184815250908060018154018082558091505060019003906000526020600020906004020160009091909190915060008201518160000160006101000a81548173ffffffffffffffffffffffffffffffffffffffff021916908373ffffffffffffffffffffffffffffffffffffffff160217905550602082015181600101556040820151816002015560608201518160030155505050505050565b600080fd5b6000819050919050565b610b9381610b80565b8114610b9e57600080fd5b50565b600081359050610bb081610b8a565b92915050565b600060208284031215610bcc57610bcb610b7b565b5b6000610bda84828501610ba1565b91505092915050565b610bec81610b80565b82525050565b6000602082019050610c076000830184610be3565b92915050565b600073ffffffffffffffffffffffffffffffffffffffff82169050919050565b6000610c3882610c0d565b9050919050565b610c4881610c2d565b8114610c5357600080fd5b50565b600081359050610c6581610c3f565b92915050565b600060208284031215610c8157610c80610b7b565b5b6000610c8f84828501610c56565b91505092915050565b600082825260208201905092915050565b7f55736572206e6f7420666f756e64000000000000000000000000000000000000600082015250565b6000610cdf600e83610c98565b9150610cea82610ca9565b602082019050919050565b60006020820190508181036000830152610d0e81610cd2565b9050919050565b7f4e487b7100000000000000000000000000000000000000000000000000000000600052603260045260246000fd5b7f4e487b7100000000000000000000000000000000000000000000000000000000600052601160045260246000fd5b6000610d7e82610b80565b91507fffffffffffffffffffffffffffffffffffffffffffffffffffffffffffffffff821415610db157610db0610d44565b5b600182019050919050565b7f536176696e67206e6f7420666f756e6400000000000000000000000000000000600082015250565b6000610df2601083610c98565b9150610dfd82610dbc565b602082019050919050565b60006020820190508181036000830152610e2181610de5565b9050919050565b6000610e3382610b80565b9150610e3e83610b80565b9250827fffffffffffffffffffffffffffffffffffffffffffffffffffffffffffffffff03821115610e7357610e72610d44565b5b828201905092915050565b7f54686520736176696e6720706572696f6420686173206e6f7420656c6170736560008201527f6400000000000000000000000000000000000000000000000000000000000000602082015250565b6000610eda602183610c98565b9150610ee582610e7e565b604082019050919050565b60006020820190508181036000830152610f0981610ecd565b9050919050565b7f4661696c656420746f2077697468647277610000000000000000000000000000600082015250565b6000610f46601283610c98565b9150610f5182610f10565b602082019050919050565b60006020820190508181036000830152610f7581610f39565b9050919050565b7f416d6f756e74206d7573742062652067726561746572207468616e2030000000600082015250565b6000610fb2601d83610c98565b9150610fbd82610f7c565b602082019050919050565b60006020820190508181036000830152610fe181610fa5565b9050919050565b7f4e487b7100000000000000000000000000000000000000000000000000000000600052600160045260246000fdfea26469706673582212207ff2a22b02f618911fead979d6d13547e6457d98e4497dc7892771e56ca567aa64736f6c634300080a0033",
  "immutableReferences": {},
  "source": "// SPDX-License-Identifier: MIT\n\npragma solidity ^0.8.1;\n\ncontract LockSave {\n    struct Saving {\n        address owner;\n        uint256 amount;\n        uint256 timestamp;\n        uint256 withdrawTimestamp;\n    }\n\n    mapping(address => Saving[]) Users;\n\n    /**\n     * @dev Check if sender already exist\n     */\n    modifier checkSenderExists() {\n        if (Users[msg.sender].length == 0) {\n            revert(\"User not found\");\n        }\n        _;\n    }\n\n    /**\n     * @dev Validate received amount\n     * @param _amount Amount to save\n     */\n    modifier validateAmount(uint256 _amount) {\n        require(_amount <= 0, \"Amount must be greater than 0\");\n        _;\n    }\n\n    /**\n     * @dev Validate withdrawal amount\n     * @param _amount Amount to withdrawn\n     */\n    modifier validateWithdrawAmount(uint256 _amount) {\n        require(_amount <= 0, \"Amount must be greater than 0\");\n        _;\n    }\n\n    /**\n     * @dev Validate withdrawal timestamp\n     * @param _withdrawTimestamp withdrawal timestamp\n     */\n    modifier validateWithdrawTimestamp(uint256 _withdrawTimestamp) {\n        require(\n            _withdrawTimestamp <= block.timestamp,\n            \"The saving period has not elapsed\"\n        );\n        _;\n    }\n\n    /**\n     * @dev Create new user saving\n     * @param _owner Owner of the saving\n     * @param _amount Amount to save\n     * @param _withdrawTimestamp Timestamp of the withdrawal\n     */\n    function _createSaving(\n        address _owner,\n        uint256 _amount,\n        uint256 _withdrawTimestamp\n    ) private validateAmount(_amount) {\n        // The user should not exist\n        assert(Users[_owner].length == 0);\n\n        // Add the new user saving\n        Users[_owner][0] = Saving(\n            _owner,\n            _amount,\n            block.timestamp,\n            _withdrawTimestamp\n        );\n    }\n\n    /**\n     * @dev Add new saving to existing user\n     * @param _owner Owner of the saving\n     * @param _amount Amount to save\n     * @param _withdrawTimestamp Timestamp of the withdrawal\n     */\n    function _addSaving(\n        address _owner,\n        uint256 _amount,\n        uint256 _withdrawTimestamp\n    ) private validateAmount(_amount) {\n        // The user should exist\n        assert(Users[_owner].length != 0);\n\n        // Add the new saving to the already existing user\n        Users[_owner].push(\n            Saving(_owner, _amount, block.timestamp, _withdrawTimestamp)\n        );\n    }\n\n    /**\n     * @dev Receive savings from user\n     * @param _withdrawTimestamp Timestamp of the withdrawal\n     */\n    function receiveSavings(uint256 _withdrawTimestamp) public payable {\n        address owner = msg.sender;\n        uint256 amount = msg.value;\n\n        // Check if the user already exists\n        if (Users[owner].length == 0) {\n            // Create new user saving\n            _createSaving(owner, amount, _withdrawTimestamp);\n        } else {\n            // Add new saving to existing user\n            _addSaving(owner, amount, _withdrawTimestamp);\n        }\n    }\n\n    /**\n     * @dev Get the total amount of savings\n     * @return Total amount of savings\n     */\n    function getUserTotalSavingAmount(address _owner)\n        public\n        view\n        returns (uint256)\n    {\n        uint256 total = 0;\n\n        // Get the user savings\n        for (uint256 i = 0; i < Users[_owner].length; i++) {\n            total += Users[_owner][i].amount;\n        }\n\n        return total;\n    }\n\n    /**\n     * @dev Get the withdrwal timestamp of the saving\n     * @param _savingTimestamp Timestamp of the saving\n     */\n    function getWithdrwalTimestamp(uint256 _savingTimestamp)\n        public\n        view\n        checkSenderExists\n        returns (uint256)\n    {\n        address owner = msg.sender;\n\n        for (uint256 i = 0; i < Users[owner].length; i++) {\n            Saving memory _saving = Users[owner][i];\n            if (_saving.timestamp == _savingTimestamp) {\n                return _saving.withdrawTimestamp;\n            }\n        }\n\n        revert(\"Saving not found\");\n    }\n\n    /**\n     * @dev Get the amount of a saving\n     * @param _savingTimestamp Timestamp of the saving\n     */\n    function getSavingAmountByTimestamp(uint256 _savingTimestamp)\n        public\n        view\n        checkSenderExists\n        returns (uint256)\n    {\n        address owner = msg.sender;\n\n        for (uint256 i = 0; i < Users[owner].length; i++) {\n            Saving memory _saving = Users[owner][i];\n            if (_saving.timestamp == _savingTimestamp) {\n                return _saving.amount;\n            }\n        }\n\n        revert(\"Saving not found\");\n    }\n\n    /**\n     * @dev Withdraw savings\n     * @param _savingTimestamp Timestamp of the saving\n     */\n    function withdrawSavings(uint256 _savingTimestamp)\n        public payable\n        checkSenderExists\n        validateWithdrawTimestamp(_savingTimestamp)\n    {\n        address payable owner = payable(msg.sender);\n        uint256 amount = getSavingAmountByTimestamp(_savingTimestamp);\n        bool sent = owner.send(amount);\n        require(sent, \"Failed to withdrwa\");\n    }\n}\n",
  "sourcePath": "/Users/gracelungu/Documents/Personal Projects/LockSave/contracts/LockSave.sol",
  "compiler": {
    "name": "solc",
    "version": "0.8.10+commit.fc410830.Emscripten.clang"
  },
  "schemaVersion": "3.4.3",
  "updatedAt": "2021-11-26T20:41:25.510Z",
  "networkType": "ethereum",
  "devdoc": {
    "kind": "dev",
    "methods": {
      "getSavingAmountByTimestamp(uint256)": {
        "details": "Get the amount of a saving",
        "params": {
          "_savingTimestamp": "Timestamp of the saving"
        }
      },
      "getUserTotalSavingAmount(address)": {
        "details": "Get the total amount of savings",
        "returns": {
          "_0": "Total amount of savings"
        }
      },
      "getWithdrwalTimestamp(uint256)": {
        "details": "Get the withdrwal timestamp of the saving",
        "params": {
          "_savingTimestamp": "Timestamp of the saving"
        }
      },
      "receiveSavings(uint256)": {
        "details": "Receive savings from user",
        "params": {
          "_withdrawTimestamp": "Timestamp of the withdrawal"
        }
      },
      "withdrawSavings(uint256)": {
        "details": "Withdraw savings",
        "params": {
          "_savingTimestamp": "Timestamp of the saving"
        }
      }
    },
    "version": 1
  },
  "userdoc": {
    "kind": "user",
    "methods": {},
    "version": 1
  }
}