{
  "contractName": "LockSave",
  "abi": [
    {
      "inputs": [],
      "name": "receiveSavings",
      "outputs": [],
      "stateMutability": "payable",
      "type": "function"
    },
    {
      "inputs": [
        {
          "internalType": "address",
          "name": "_owner",
          "type": "address"
        }
      ],
      "name": "getUserTotalSavingAmount",
      "outputs": [
        {
          "internalType": "uint256",
          "name": "",
          "type": "uint256"
        }
      ],
      "stateMutability": "view",
      "type": "function"
    }
  ],
  "bytecode": "0x608060405234801561001057600080fd5b50610785806100206000396000f3fe6080604052600436106100295760003560e01c8063b329a0ea1461002e578063c7ff035c14610038575b600080fd5b610036610075565b005b34801561004457600080fd5b5061005f600480360381019061005a9190610545565b6100e7565b60405161006c919061058b565b60405180910390f35b6000339050600034905060008060008473ffffffffffffffffffffffffffffffffffffffff1673ffffffffffffffffffffffffffffffffffffffff1681526020019081526020016000208054905014156100d8576100d382826101c6565b6100e3565b6100e28282610350565b5b5050565b6000806000905060005b6000808573ffffffffffffffffffffffffffffffffffffffff1673ffffffffffffffffffffffffffffffffffffffff168152602001908152602001600020805490508110156101bc576000808573ffffffffffffffffffffffffffffffffffffffff1673ffffffffffffffffffffffffffffffffffffffff168152602001908152602001600020818154811061018a576101896105a6565b5b906000526020600020906003020160010154826101a79190610604565b915080806101b49061065a565b9150506100f1565b5080915050919050565b80600081111561020b576040517f08c379a000000000000000000000000000000000000000000000000000000000815260040161020290610700565b60405180910390fd5b60008060008573ffffffffffffffffffffffffffffffffffffffff1673ffffffffffffffffffffffffffffffffffffffff168152602001908152602001600020805490501461025d5761025c610720565b5b60405180606001604052808473ffffffffffffffffffffffffffffffffffffffff168152602001838152602001428152506000808573ffffffffffffffffffffffffffffffffffffffff1673ffffffffffffffffffffffffffffffffffffffff1681526020019081526020016000206000815481106102df576102de6105a6565b5b906000526020600020906003020160008201518160000160006101000a81548173ffffffffffffffffffffffffffffffffffffffff021916908373ffffffffffffffffffffffffffffffffffffffff1602179055506020820151816001015560408201518160020155905050505050565b806000811115610395576040517f08c379a000000000000000000000000000000000000000000000000000000000815260040161038c90610700565b60405180910390fd5b60008060008573ffffffffffffffffffffffffffffffffffffffff1673ffffffffffffffffffffffffffffffffffffffff1681526020019081526020016000208054905014156103e8576103e7610720565b5b6000808473ffffffffffffffffffffffffffffffffffffffff1673ffffffffffffffffffffffffffffffffffffffff16815260200190815260200160002060405180606001604052808573ffffffffffffffffffffffffffffffffffffffff16815260200184815260200142815250908060018154018082558091505060019003906000526020600020906003020160009091909190915060008201518160000160006101000a81548173ffffffffffffffffffffffffffffffffffffffff021916908373ffffffffffffffffffffffffffffffffffffffff16021790555060208201518160010155604082015181600201555050505050565b600080fd5b600073ffffffffffffffffffffffffffffffffffffffff82169050919050565b6000610512826104e7565b9050919050565b61052281610507565b811461052d57600080fd5b50565b60008135905061053f81610519565b92915050565b60006020828403121561055b5761055a6104e2565b5b600061056984828501610530565b91505092915050565b6000819050919050565b61058581610572565b82525050565b60006020820190506105a0600083018461057c565b92915050565b7f4e487b7100000000000000000000000000000000000000000000000000000000600052603260045260246000fd5b7f4e487b7100000000000000000000000000000000000000000000000000000000600052601160045260246000fd5b600061060f82610572565b915061061a83610572565b9250827fffffffffffffffffffffffffffffffffffffffffffffffffffffffffffffffff0382111561064f5761064e6105d5565b5b828201905092915050565b600061066582610572565b91507fffffffffffffffffffffffffffffffffffffffffffffffffffffffffffffffff821415610698576106976105d5565b5b600182019050919050565b600082825260208201905092915050565b7f416d6f756e74206d7573742062652067726561746572207468616e2030000000600082015250565b60006106ea601d836106a3565b91506106f5826106b4565b602082019050919050565b60006020820190508181036000830152610719816106dd565b9050919050565b7f4e487b7100000000000000000000000000000000000000000000000000000000600052600160045260246000fdfea26469706673582212207b96ed4eb638bc943b6a09bfae4d95da3bf9a5873e56783b5cabf150cd66d8b864736f6c634300080a0033",
  "immutableReferences": {},
  "source": "// SPDX-License-Identifier: MIT\n\npragma solidity ^0.8.1;\n\ncontract LockSave {\n    struct Saving {\n        address owner;\n        uint256 amount;\n        uint256 timestamp;\n    }\n\n    mapping(address => Saving[]) Users;\n\n    /**\n     * @dev Validate received amount\n     * @param _amount Amount to save\n     */\n    modifier validateAmount(uint256 _amount) {\n        require(_amount <= 0, \"Amount must be greater than 0\");\n        _;\n    }\n\n    /**\n     * @dev Create new user saving\n     * @param _owner Owner of the saving\n     * @param _amount Amount to save\n     */\n    function _createSaving(address _owner, uint256 _amount)\n        private\n        validateAmount(_amount)\n    {\n        // The user should not exist\n        assert(Users[_owner].length == 0);\n\n        // Add the new user saving\n        Users[_owner][0] = Saving(_owner, _amount, block.timestamp);\n    }\n\n    /**\n     *@dev Add new saving to existing user\n     *@param _owner Owner of the saving\n     *@param _amount Amount to save\n     */\n    function _addSaving(address _owner, uint256 _amount)\n        private\n        validateAmount(_amount)\n    {\n        // The user should exist\n        assert(Users[_owner].length != 0);\n\n        // Add the new saving to the already existing user\n        Users[_owner].push(Saving(_owner, _amount, block.timestamp));\n    }\n\n    /**\n     * @dev Receive savings from user\n     */\n    function receiveSavings() public payable {\n        address owner = msg.sender;\n        uint256 amount = msg.value;\n\n        // Check if the user already exists\n        if (Users[owner].length == 0) {\n            // Create new user saving\n            _createSaving(owner, amount);\n        } else {\n            // Add new saving to existing user\n            _addSaving(owner, amount);\n        }\n    }\n\n    /**\n     * @dev Get the total amount of savings\n     * @return Total amount of savings\n     */\n    function getUserTotalSavingAmount(address _owner)\n        public\n        view\n        returns (uint256)\n    {\n        uint256 total = 0;\n\n        // Get the user savings\n        for (uint256 i = 0; i < Users[_owner].length; i++) {\n            total += Users[_owner][i].amount;\n        }\n\n        return total;\n    }\n}\n",
  "sourcePath": "/Users/gracelungu/Documents/Personal Projects/LockSave/contracts/LockSave.sol",
  "compiler": {
    "name": "solc",
    "version": "0.8.10+commit.fc410830.Emscripten.clang"
  },
  "schemaVersion": "3.4.3",
  "updatedAt": "2021-11-26T19:21:43.457Z",
  "devdoc": {
    "kind": "dev",
    "methods": {
      "getUserTotalSavingAmount(address)": {
        "details": "Get the total amount of savings",
        "returns": {
          "_0": "Total amount of savings"
        }
      },
      "receiveSavings()": {
        "details": "Receive savings from user"
      }
    },
    "version": 1
  },
  "userdoc": {
    "kind": "user",
    "methods": {},
    "version": 1
  }
}