{
  "contractName": "LockSave",
  "abi": [
    {
      "inputs": [],
      "name": "getTotalRewardsLeft",
      "outputs": [
        {
          "internalType": "uint256",
          "name": "",
          "type": "uint256"
        }
      ],
      "stateMutability": "view",
      "type": "function"
    },
    {
      "inputs": [
        {
          "internalType": "uint256",
          "name": "_withdrawTimestamp",
          "type": "uint256"
        }
      ],
      "name": "receiveSavings",
      "outputs": [],
      "stateMutability": "payable",
      "type": "function"
    },
    {
      "inputs": [
        {
          "internalType": "address",
          "name": "_user",
          "type": "address"
        }
      ],
      "name": "getUserTotalSavingAmount",
      "outputs": [
        {
          "internalType": "uint256",
          "name": "",
          "type": "uint256"
        }
      ],
      "stateMutability": "view",
      "type": "function"
    },
    {
      "inputs": [
        {
          "internalType": "address",
          "name": "_user",
          "type": "address"
        }
      ],
      "name": "getUserSavings",
      "outputs": [
        {
          "components": [
            {
              "internalType": "address",
              "name": "owner",
              "type": "address"
            },
            {
              "internalType": "uint256",
              "name": "amount",
              "type": "uint256"
            },
            {
              "internalType": "uint256",
              "name": "timestamp",
              "type": "uint256"
            },
            {
              "internalType": "uint256",
              "name": "withdrawTimestamp",
              "type": "uint256"
            }
          ],
          "internalType": "struct LockSave.Saving[]",
          "name": "",
          "type": "tuple[]"
        }
      ],
      "stateMutability": "view",
      "type": "function"
    },
    {
      "inputs": [
        {
          "internalType": "uint256",
          "name": "_withdrawalTimestamp",
          "type": "uint256"
        }
      ],
      "name": "getSavingTimestamp",
      "outputs": [
        {
          "internalType": "uint256",
          "name": "",
          "type": "uint256"
        }
      ],
      "stateMutability": "view",
      "type": "function"
    },
    {
      "inputs": [
        {
          "internalType": "uint256",
          "name": "_savingTimestamp",
          "type": "uint256"
        }
      ],
      "name": "getWithdrawalTimestamp",
      "outputs": [
        {
          "internalType": "uint256",
          "name": "",
          "type": "uint256"
        }
      ],
      "stateMutability": "view",
      "type": "function"
    },
    {
      "inputs": [
        {
          "internalType": "uint256",
          "name": "_timestamp",
          "type": "uint256"
        }
      ],
      "name": "getSavingAmountByTimestamp",
      "outputs": [
        {
          "internalType": "uint256",
          "name": "",
          "type": "uint256"
        }
      ],
      "stateMutability": "view",
      "type": "function"
    },
    {
      "inputs": [
        {
          "internalType": "uint256",
          "name": "_timestamp",
          "type": "uint256"
        }
      ],
      "name": "getSavingIndexByTimestamp",
      "outputs": [
        {
          "internalType": "uint256",
          "name": "",
          "type": "uint256"
        }
      ],
      "stateMutability": "view",
      "type": "function"
    },
    {
      "inputs": [
        {
          "internalType": "uint256",
          "name": "_savingTimestamp",
          "type": "uint256"
        }
      ],
      "name": "withdrawSavings",
      "outputs": [],
      "stateMutability": "nonpayable",
      "type": "function"
    },
    {
      "inputs": [
        {
          "internalType": "uint256",
          "name": "_savingTimestamp",
          "type": "uint256"
        }
      ],
      "name": "withdrawOnTime",
      "outputs": [],
      "stateMutability": "nonpayable",
      "type": "function"
    },
    {
      "inputs": [
        {
          "internalType": "uint256",
          "name": "_savingTimestamp",
          "type": "uint256"
        }
      ],
      "name": "earlySavingsWithdrawal",
      "outputs": [],
      "stateMutability": "nonpayable",
      "type": "function"
    }
  ],
  "bytecode": "0x6080604052692a5a058fc295ed00000060015534801561001e57600080fd5b50611a1e8061002e6000396000f3fe60806040526004361061009c5760003560e01c8063c7ff035c11610064578063c7ff035c146101aa578063cbcc1f09146101e7578063cee7f22514610212578063de9864501461024f578063f5c6ecd714610278578063f80a2057146102945761009c565b80631f3f9062146100a15780632b1c5e63146100de5780634139b7bc146101075780636e801f9714610144578063c67c7c8514610181575b600080fd5b3480156100ad57600080fd5b506100c860048036038101906100c39190611470565b6102d1565b6040516100d591906114ac565b60405180910390f35b3480156100ea57600080fd5b5061010560048036038101906101009190611470565b6104f9565b005b34801561011357600080fd5b5061012e60048036038101906101299190611470565b6106e0565b60405161013b91906114ac565b60405180910390f35b34801561015057600080fd5b5061016b60048036038101906101669190611470565b610908565b60405161017891906114ac565b60405180910390f35b34801561018d57600080fd5b506101a860048036038101906101a39190611470565b610b30565b005b3480156101b657600080fd5b506101d160048036038101906101cc9190611525565b610cf4565b6040516101de91906114ac565b60405180910390f35b3480156101f357600080fd5b506101fc610e59565b60405161020991906114ac565b60405180910390f35b34801561021e57600080fd5b5061023960048036038101906102349190611470565b610e63565b60405161024691906114ac565b60405180910390f35b34801561025b57600080fd5b5061027660048036038101906102719190611470565b611087565b005b610292600480360381019061028d9190611470565b61113c565b005b3480156102a057600080fd5b506102bb60048036038101906102b69190611525565b611299565b6040516102c89190611674565b60405180910390f35b6000806000803373ffffffffffffffffffffffffffffffffffffffff1673ffffffffffffffffffffffffffffffffffffffff168152602001908152602001600020805490501415610357576040517f08c379a000000000000000000000000000000000000000000000000000000000815260040161034e906116f3565b60405180910390fd5b600033905060005b6000808373ffffffffffffffffffffffffffffffffffffffff1673ffffffffffffffffffffffffffffffffffffffff168152602001908152602001600020805490508110156104b85760008060008473ffffffffffffffffffffffffffffffffffffffff1673ffffffffffffffffffffffffffffffffffffffff16815260200190815260200160002082815481106103fa576103f9611713565b5b90600052602060002090600402016040518060800160405290816000820160009054906101000a900473ffffffffffffffffffffffffffffffffffffffff1673ffffffffffffffffffffffffffffffffffffffff1673ffffffffffffffffffffffffffffffffffffffff1681526020016001820154815260200160028201548152602001600382015481525050905084816040015114156104a457806060015193505050506104f4565b5080806104b090611771565b91505061035f565b506040517f08c379a00000000000000000000000000000000000000000000000000000000081526004016104eb90611806565b60405180910390fd5b919050565b60008060003373ffffffffffffffffffffffffffffffffffffffff1673ffffffffffffffffffffffffffffffffffffffff16815260200190815260200160002080549050141561057e576040517f08c379a0000000000000000000000000000000000000000000000000000000008152600401610575906116f3565b60405180910390fd5b6000339050600061058e83610908565b9050600060648261059f9190611855565b9050600081836105af9190611886565b905060008473ffffffffffffffffffffffffffffffffffffffff166108fc839081150290604051600060405180830381858888f19350505050905060006105f587610e63565b90506000808773ffffffffffffffffffffffffffffffffffffffff1673ffffffffffffffffffffffffffffffffffffffff168152602001908152602001600020818154811061064757610646611713565b5b9060005260206000209060040201600080820160006101000a81549073ffffffffffffffffffffffffffffffffffffffff02191690556001820160009055600282016000905560038201600090555050816106d7576040517f08c379a00000000000000000000000000000000000000000000000000000000081526004016106ce90611906565b60405180910390fd5b50505050505050565b6000806000803373ffffffffffffffffffffffffffffffffffffffff1673ffffffffffffffffffffffffffffffffffffffff168152602001908152602001600020805490501415610766576040517f08c379a000000000000000000000000000000000000000000000000000000000815260040161075d906116f3565b60405180910390fd5b600033905060005b6000808373ffffffffffffffffffffffffffffffffffffffff1673ffffffffffffffffffffffffffffffffffffffff168152602001908152602001600020805490508110156108c75760008060008473ffffffffffffffffffffffffffffffffffffffff1673ffffffffffffffffffffffffffffffffffffffff168152602001908152602001600020828154811061080957610808611713565b5b90600052602060002090600402016040518060800160405290816000820160009054906101000a900473ffffffffffffffffffffffffffffffffffffffff1673ffffffffffffffffffffffffffffffffffffffff1673ffffffffffffffffffffffffffffffffffffffff1681526020016001820154815260200160028201548152602001600382015481525050905084816060015114156108b35780604001519350505050610903565b5080806108bf90611771565b91505061076e565b506040517f08c379a00000000000000000000000000000000000000000000000000000000081526004016108fa90611806565b60405180910390fd5b919050565b6000806000803373ffffffffffffffffffffffffffffffffffffffff1673ffffffffffffffffffffffffffffffffffffffff16815260200190815260200160002080549050141561098e576040517f08c379a0000000000000000000000000000000000000000000000000000000008152600401610985906116f3565b60405180910390fd5b600033905060005b6000808373ffffffffffffffffffffffffffffffffffffffff1673ffffffffffffffffffffffffffffffffffffffff16815260200190815260200160002080549050811015610aef5760008060008473ffffffffffffffffffffffffffffffffffffffff1673ffffffffffffffffffffffffffffffffffffffff1681526020019081526020016000208281548110610a3157610a30611713565b5b90600052602060002090600402016040518060800160405290816000820160009054906101000a900473ffffffffffffffffffffffffffffffffffffffff1673ffffffffffffffffffffffffffffffffffffffff1673ffffffffffffffffffffffffffffffffffffffff168152602001600182015481526020016002820154815260200160038201548152505090508481604001511415610adb5780602001519350505050610b2b565b508080610ae790611771565b915050610996565b506040517f08c379a0000000000000000000000000000000000000000000000000000000008152600401610b2290611806565b60405180910390fd5b919050565b60008060003373ffffffffffffffffffffffffffffffffffffffff1673ffffffffffffffffffffffffffffffffffffffff168152602001908152602001600020805490501415610bb5576040517f08c379a0000000000000000000000000000000000000000000000000000000008152600401610bac906116f3565b60405180910390fd5b60003390506000610bc583610908565b905060008273ffffffffffffffffffffffffffffffffffffffff166108fc839081150290604051600060405180830381858888f1935050505090506000610c0b85610e63565b90506000808573ffffffffffffffffffffffffffffffffffffffff1673ffffffffffffffffffffffffffffffffffffffff1681526020019081526020016000208181548110610c5d57610c5c611713565b5b9060005260206000209060040201600080820160006101000a81549073ffffffffffffffffffffffffffffffffffffffff0219169055600182016000905560028201600090556003820160009055505081610ced576040517f08c379a0000000000000000000000000000000000000000000000000000000008152600401610ce490611906565b60405180910390fd5b5050505050565b6000806000803373ffffffffffffffffffffffffffffffffffffffff1673ffffffffffffffffffffffffffffffffffffffff168152602001908152602001600020805490501415610d7a576040517f08c379a0000000000000000000000000000000000000000000000000000000008152600401610d71906116f3565b60405180910390fd5b60008083905060005b6000808373ffffffffffffffffffffffffffffffffffffffff1673ffffffffffffffffffffffffffffffffffffffff16815260200190815260200160002080549050811015610e4e576000808373ffffffffffffffffffffffffffffffffffffffff1673ffffffffffffffffffffffffffffffffffffffff1681526020019081526020016000208181548110610e1c57610e1b611713565b5b90600052602060002090600402016001015483610e399190611926565b92508080610e4690611771565b915050610d83565b508192505050919050565b6000600154905090565b6000806000803373ffffffffffffffffffffffffffffffffffffffff1673ffffffffffffffffffffffffffffffffffffffff168152602001908152602001600020805490501415610ee9576040517f08c379a0000000000000000000000000000000000000000000000000000000008152600401610ee0906116f3565b60405180910390fd5b600033905060005b6000808373ffffffffffffffffffffffffffffffffffffffff1673ffffffffffffffffffffffffffffffffffffffff168152602001908152602001600020805490508110156110465760008060008473ffffffffffffffffffffffffffffffffffffffff1673ffffffffffffffffffffffffffffffffffffffff1681526020019081526020016000208281548110610f8c57610f8b611713565b5b90600052602060002090600402016040518060800160405290816000820160009054906101000a900473ffffffffffffffffffffffffffffffffffffffff1673ffffffffffffffffffffffffffffffffffffffff1673ffffffffffffffffffffffffffffffffffffffff16815260200160018201548152602001600282015481526020016003820154815250509050848160400151141561103257819350505050611082565b50808061103e90611771565b915050610ef1565b506040517f08c379a000000000000000000000000000000000000000000000000000000000815260040161107990611806565b60405180910390fd5b919050565b60008060003373ffffffffffffffffffffffffffffffffffffffff1673ffffffffffffffffffffffffffffffffffffffff16815260200190815260200160002080549050141561110c576040517f08c379a0000000000000000000000000000000000000000000000000000000008152600401611103906116f3565b60405180910390fd5b6000611117826102d1565b905080421061112e5761112982610b30565b611138565b611137826104f9565b5b5050565b6000341161117f576040517f08c379a0000000000000000000000000000000000000000000000000000000008152600401611176906119c8565b60405180910390fd5b60003390506000349050600060405180608001604052808473ffffffffffffffffffffffffffffffffffffffff1681526020018381526020014281526020018581525090506000808473ffffffffffffffffffffffffffffffffffffffff1673ffffffffffffffffffffffffffffffffffffffff16815260200190815260200160002081908060018154018082558091505060019003906000526020600020906004020160009091909190915060008201518160000160006101000a81548173ffffffffffffffffffffffffffffffffffffffff021916908373ffffffffffffffffffffffffffffffffffffffff160217905550602082015181600101556040820151816002015560608201518160030155505050505050565b606060008060003373ffffffffffffffffffffffffffffffffffffffff1673ffffffffffffffffffffffffffffffffffffffff168152602001908152602001600020805490501415611320576040517f08c379a0000000000000000000000000000000000000000000000000000000008152600401611317906116f3565b60405180910390fd5b60008290506000808273ffffffffffffffffffffffffffffffffffffffff1673ffffffffffffffffffffffffffffffffffffffff168152602001908152602001600020805480602002602001604051908101604052809291908181526020016000905b8282101561142957838290600052602060002090600402016040518060800160405290816000820160009054906101000a900473ffffffffffffffffffffffffffffffffffffffff1673ffffffffffffffffffffffffffffffffffffffff1673ffffffffffffffffffffffffffffffffffffffff168152602001600182015481526020016002820154815260200160038201548152505081526020019060010190611383565b50505050915050919050565b600080fd5b6000819050919050565b61144d8161143a565b811461145857600080fd5b50565b60008135905061146a81611444565b92915050565b60006020828403121561148657611485611435565b5b60006114948482850161145b565b91505092915050565b6114a68161143a565b82525050565b60006020820190506114c1600083018461149d565b92915050565b600073ffffffffffffffffffffffffffffffffffffffff82169050919050565b60006114f2826114c7565b9050919050565b611502816114e7565b811461150d57600080fd5b50565b60008135905061151f816114f9565b92915050565b60006020828403121561153b5761153a611435565b5b600061154984828501611510565b91505092915050565b600081519050919050565b600082825260208201905092915050565b6000819050602082019050919050565b611587816114e7565b82525050565b6115968161143a565b82525050565b6080820160008201516115b2600085018261157e565b5060208201516115c5602085018261158d565b5060408201516115d8604085018261158d565b5060608201516115eb606085018261158d565b50505050565b60006115fd838361159c565b60808301905092915050565b6000602082019050919050565b600061162182611552565b61162b818561155d565b93506116368361156e565b8060005b8381101561166757815161164e88826115f1565b975061165983611609565b92505060018101905061163a565b5085935050505092915050565b6000602082019050818103600083015261168e8184611616565b905092915050565b600082825260208201905092915050565b7f55736572206e6f7420666f756e64000000000000000000000000000000000000600082015250565b60006116dd600e83611696565b91506116e8826116a7565b602082019050919050565b6000602082019050818103600083015261170c816116d0565b9050919050565b7f4e487b7100000000000000000000000000000000000000000000000000000000600052603260045260246000fd5b7f4e487b7100000000000000000000000000000000000000000000000000000000600052601160045260246000fd5b600061177c8261143a565b91507fffffffffffffffffffffffffffffffffffffffffffffffffffffffffffffffff8214156117af576117ae611742565b5b600182019050919050565b7f536176696e67206e6f7420666f756e6400000000000000000000000000000000600082015250565b60006117f0601083611696565b91506117fb826117ba565b602082019050919050565b6000602082019050818103600083015261181f816117e3565b9050919050565b7f4e487b7100000000000000000000000000000000000000000000000000000000600052601260045260246000fd5b60006118608261143a565b915061186b8361143a565b92508261187b5761187a611826565b5b828204905092915050565b60006118918261143a565b915061189c8361143a565b9250828210156118af576118ae611742565b5b828203905092915050565b7f4661696c656420746f2077697468647261770000000000000000000000000000600082015250565b60006118f0601283611696565b91506118fb826118ba565b602082019050919050565b6000602082019050818103600083015261191f816118e3565b9050919050565b60006119318261143a565b915061193c8361143a565b9250827fffffffffffffffffffffffffffffffffffffffffffffffffffffffffffffffff0382111561197157611970611742565b5b828201905092915050565b7f416d6f756e74206d7573742062652067726561746572207468616e2030000000600082015250565b60006119b2601d83611696565b91506119bd8261197c565b602082019050919050565b600060208201905081810360008301526119e1816119a5565b905091905056fea2646970667358221220d4d7234da0b87981abde1011b67005ceb3d40c927988221db224941ad1645c5064736f6c634300080a0033",
  "immutableReferences": {},
  "source": "// SPDX-License-Identifier: MIT\n\nimport \"./common/Modifiers.sol\";\n\npragma solidity ^0.8.1;\n\ncontract LockSave is Modifiers {\n    struct Saving {\n        address owner;\n        uint256 amount;\n        uint256 timestamp;\n        uint256 withdrawTimestamp;\n    }\n\n    mapping(address => Saving[]) Users;\n\n    uint256 totalLockTokenRewards = 200000 * 10**18;\n\n    /**\n     *@dev Gets the total rewards left to be distributed\n     */\n    function getTotalRewardsLeft() public view returns (uint256) {\n        return totalLockTokenRewards;\n    }\n\n    /**\n     * @dev Check if sender already exist\n     */\n    modifier checkSenderExists() {\n        if (Users[msg.sender].length == 0) {\n            revert(\"User not found\");\n        }\n        _;\n    }\n\n    /**\n     * @dev Receive savings from user\n     * @param _withdrawTimestamp Timestamp of the withdrawal\n     */\n    function receiveSavings(uint256 _withdrawTimestamp)\n        public\n        payable\n        validateAmount\n    {\n        address owner = msg.sender;\n        uint256 amount = msg.value;\n\n        Saving memory saving = Saving(\n            owner,\n            amount,\n            block.timestamp,\n            _withdrawTimestamp\n        );\n\n        // Add the new saving\n        Users[owner].push(saving);\n    }\n\n    /**\n     * @dev Get the total amount of savings\n     */\n    function getUserTotalSavingAmount(address _user)\n        public\n        view\n        checkSenderExists\n        returns (uint256)\n    {\n        uint256 total = 0;\n        address owner = _user;\n\n        // Get the user savings\n        for (uint256 i = 0; i < Users[owner].length; i++) {\n            total += Users[owner][i].amount;\n        }\n\n        return total;\n    }\n\n    /**\n     * @dev Get the user savings list\n     */\n    function getUserSavings(address _user)\n        public\n        view\n        checkSenderExists\n        returns (Saving[] memory)\n    {\n        address owner = _user;\n        return Users[owner];\n    }\n\n    /**\n     * @dev Get the saving timestamp of the saving\n     * @param _withdrawalTimestamp Timestamp of the saving\n     */\n    function getSavingTimestamp(uint256 _withdrawalTimestamp)\n        public\n        view\n        checkSenderExists\n        returns (uint256)\n    {\n        address owner = msg.sender;\n\n        for (uint256 i = 0; i < Users[owner].length; i++) {\n            Saving memory _saving = Users[owner][i];\n            if (_saving.withdrawTimestamp == _withdrawalTimestamp) {\n                return _saving.timestamp;\n            }\n        }\n\n        revert(\"Saving not found\");\n    }\n\n    /**\n     * @dev Get the withdrawal timestamp of the saving\n     * @param _savingTimestamp Timestamp of the saving\n     */\n    function getWithdrawalTimestamp(uint256 _savingTimestamp)\n        public\n        view\n        checkSenderExists\n        returns (uint256)\n    {\n        address owner = msg.sender;\n\n        for (uint256 i = 0; i < Users[owner].length; i++) {\n            Saving memory _saving = Users[owner][i];\n            if (_saving.timestamp == _savingTimestamp) {\n                return _saving.withdrawTimestamp;\n            }\n        }\n\n        revert(\"Saving not found\");\n    }\n\n    /**\n     * @dev Get the amount of a saving\n     * @param _timestamp Timestamp of the saving\n     */\n    function getSavingAmountByTimestamp(uint256 _timestamp)\n        public\n        view\n        checkSenderExists\n        returns (uint256)\n    {\n        address owner = msg.sender;\n\n        for (uint256 i = 0; i < Users[owner].length; i++) {\n            Saving memory _saving = Users[owner][i];\n            if (_saving.timestamp == _timestamp) {\n                return _saving.amount;\n            }\n        }\n\n        revert(\"Saving not found\");\n    }\n\n    /**\n     * @dev Get the index of the saving by timestamp\n     * @param _timestamp Timestamp of the saving\n     */\n    function getSavingIndexByTimestamp(uint256 _timestamp)\n        public\n        view\n        checkSenderExists\n        returns (uint256)\n    {\n        address owner = msg.sender;\n\n        for (uint256 i = 0; i < Users[owner].length; i++) {\n            Saving memory _saving = Users[owner][i];\n            if (_saving.timestamp == _timestamp) {\n                return i;\n            }\n        }\n\n        revert(\"Saving not found\");\n    }\n\n    /**\n     * @dev Withdraw savings\n     * @param _savingTimestamp Timestamp of the saving\n     */\n    function withdrawSavings(uint256 _savingTimestamp)\n        public\n        checkSenderExists\n    {\n        uint256 _withdrawTimestamp = getWithdrawalTimestamp(_savingTimestamp);\n        if (block.timestamp >= _withdrawTimestamp) {\n            withdrawOnTime(_savingTimestamp);\n        } else {\n            earlySavingsWithdrawal(_savingTimestamp);\n        }\n    }\n\n    function withdrawOnTime(uint256 _savingTimestamp) public checkSenderExists {\n        address payable owner = payable(msg.sender);\n        uint256 amount = getSavingAmountByTimestamp(_savingTimestamp);\n\n        bool sent = owner.send(amount);\n\n        uint256 savingIndex = getSavingIndexByTimestamp(_savingTimestamp);\n        delete Users[owner][savingIndex];\n        require(sent, \"Failed to withdraw\");\n    }\n\n    /**\n     * @dev Withdraw savings before withdrwal timestamp\n     * @param _savingTimestamp Timestamp of the saving\n     */\n    function earlySavingsWithdrawal(uint256 _savingTimestamp)\n        public\n        checkSenderExists\n    {\n        address payable owner = payable(msg.sender);\n        uint256 amount = getSavingAmountByTimestamp(_savingTimestamp);\n\n        // Deduct 1% of the amount for an early withdrawal\n        uint256 amountToDeduct = amount / 100;\n        uint256 amountToSend = amount - amountToDeduct;\n\n        bool sent = owner.send(amountToSend);\n\n        uint256 savingIndex = getSavingIndexByTimestamp(_savingTimestamp);\n        delete Users[owner][savingIndex];\n        require(sent, \"Failed to withdraw\");\n    }\n}\n",
  "sourcePath": "/Users/gracelungu/Documents/Personal Projects/LockSave/contracts/LockSave.sol",
  "compiler": {
    "name": "solc",
    "version": "0.8.10+commit.fc410830.Emscripten.clang"
  },
  "schemaVersion": "3.4.3",
  "updatedAt": "2021-12-08T11:02:11.295Z",
  "networkType": "ethereum",
  "devdoc": {
    "kind": "dev",
    "methods": {
      "earlySavingsWithdrawal(uint256)": {
        "details": "Withdraw savings before withdrwal timestamp",
        "params": {
          "_savingTimestamp": "Timestamp of the saving"
        }
      },
      "getSavingAmountByTimestamp(uint256)": {
        "details": "Get the amount of a saving",
        "params": {
          "_timestamp": "Timestamp of the saving"
        }
      },
      "getSavingIndexByTimestamp(uint256)": {
        "details": "Get the index of the saving by timestamp",
        "params": {
          "_timestamp": "Timestamp of the saving"
        }
      },
      "getSavingTimestamp(uint256)": {
        "details": "Get the saving timestamp of the saving",
        "params": {
          "_withdrawalTimestamp": "Timestamp of the saving"
        }
      },
      "getTotalRewardsLeft()": {
        "details": "Gets the total rewards left to be distributed"
      },
      "getUserSavings(address)": {
        "details": "Get the user savings list"
      },
      "getUserTotalSavingAmount(address)": {
        "details": "Get the total amount of savings"
      },
      "getWithdrawalTimestamp(uint256)": {
        "details": "Get the withdrawal timestamp of the saving",
        "params": {
          "_savingTimestamp": "Timestamp of the saving"
        }
      },
      "receiveSavings(uint256)": {
        "details": "Receive savings from user",
        "params": {
          "_withdrawTimestamp": "Timestamp of the withdrawal"
        }
      },
      "withdrawSavings(uint256)": {
        "details": "Withdraw savings",
        "params": {
          "_savingTimestamp": "Timestamp of the saving"
        }
      }
    },
    "version": 1
  },
  "userdoc": {
    "kind": "user",
    "methods": {},
    "version": 1
  }
}